:100000000C942A000C9447000C9447000C94470071
:100010000C9447000C9447000C9447000C94470044
:100020000C9447000C9447000C9447000C94470034
:100030000C9447000C9447000C9447000C94470024
:100040000C9447000C9447000C9447000C94470014
:100050000C94470011241FBECFE5D4E0DEBFCDBF16
:1000600010E0A0E6B0E0E0E7F8E002C005900D92F5
:10007000AE3BB107D9F710E0AEEBB0E001C01D9286
:10008000A23CB107E1F70E9449000C9436040C949D
:1000900000002F923F924F925F926F927F928F92C9
:1000A0009F92AF92BF92CF92DF92EF92FF920F9307
:1000B0001F93DF93CF93CDB7DEB762970FB6F89457
:1000C000DEBF0FBECDBF0E94B0028EE085BD89EFBE
:1000D00083BD8CE683BF80E88CBFBB9A2FE72A8B59
:1000E00000E0298B188A1F861E8638E13D8749E08B
:1000F0004C8782E390E09A87898711E00EC00E94C6
:1001000035038F3739F09A899F3721F48A8B898B91
:1001100001E002C08A8B00E0188A08B607FE76C0AC
:1001200088B7806888BF2F852F5F2F872D3709F00C
:1001300052C03E853F5F3E873C3321F44D854F5F83
:100140004D871E865D855C3321F48C858F5F8C879F
:100150001D869C85983109F41C8682E061E00E942E
:10016000E3022C852A3030F0822F6AE00E94AC0333
:10017000805D01C080E20E9401038C856AE00E94DC
:10018000AC03892F805D0E9401038AE30E94010372
:100190008D856AE00E94AC03805D0E9401038D851D
:1001A0006AE00E94AC03892F805D0E9401038AE30C
:1001B0000E9401038E856AE00E94AC03805D0E946C
:1001C00001038E856AE00E94AC03892F805D0E9446
:1001D00001031F8611C03F85333471F482E063E070
:1001E0000E94E30280E20E94010382E066E00E9436
:1001F000E30280E20E94010308B607FE07C00E94E6
:100200002E0380E690E00E942203FFCF002309F432
:10021000E7C089898354823008F0EAC049894334B1
:1002200069F489859A8505969A8789878536910527
:1002300094F024E630E03A8729870DC039893434B8
:1002400051F449855A85455050405A87498757FF90
:1002500002C01A86198629853A854FEF50E0249FFF
:10026000C001259F900D349F900D112464E670E02D
:100270000E94B8036CBF82E06BE00E94E30286E656
:1002800090E00E94220389859A85BE016F5F7F4FAF
:100290004AE050E00E94FD03CE0101960E94220335
:1002A00089E690E00E9422039BC059895A3308F0E6
:1002B00097C01230C1F0133009F1113009F090C02D
:1002C00081E061E00E94E3028CE690E00E9422035C
:1002D00089898D8381E061E00E94E30289890E941F
:1002E000010312E07DC099899E8381E062E00E9453
:1002F000E30289890E94010313E072C029892F83D8
:10030000188681E063E00E94E30289890E9401036C
:1003100081E065E00E94E3028DE790E00E94220305
:10032000CE0105960E94DF039C01442737FD4095CE
:10033000542FCA01B9010E948D031B012C011B8699
:1003400091E0A92EB12CC12CD12C2DC0C801B70130
:10035000A80197010E948D03660D771D881D991DC8
:10036000621573058405950511F431E03B87089407
:10037000E11CF11C011D111D48EEE41643E0F406DA
:1003800040E0040740E0140709F70894A11CB11CE1
:10039000C11CD11C58EEA51653E0B50650E0C506A9
:1003A00050E0D50671F0C601B501A60195010E9485
:1003B0008D033B014C0181E0E82EF12C012D112D24
:1003C000C5CF81E065E00E94E3028B85882319F0A8
:1003D00085E890E002C081E990E00E94220311E0EC
:1003E00098899F5F988B983C09F489CE00E095CE60
:1003F0002989203308F059CFF3CF9B01AC0110922B
:10040000BE001092BF001092C0001092C10013C035
:100410008091BE009091BF00A091C000B091C1003A
:100420000196A11DB11D8093BE009093BF00A093C3
:10043000C000B093C1008091BE009091BF00A09118
:10044000C000B091C10082179307A407B50700F35D
:10045000089511BA882311F4C59801C0C59AC69AA7
:100460000000C79A0000000000000000000080B3F8
:10047000C79800009FEF91BB08959FEF91BB882321
:1004800011F4C59801C0C59AC69862BB0000C79A0E
:10049000000000000000C7980000089580E00E945E
:1004A000290287FDFBCF08950E944E0280E06FE392
:1004B0000E943D020E944E0280E066E00E943D02E2
:1004C0000E944E0280E06CE00E943D020E944E02BB
:1004D00080E061E00E943D020895EF92FF920F9349
:1004E0001F93DF93CF93CDB7DEB760970FB6F89425
:1004F000DEBF0FBECDBFDE011196EEEAF0E080E177
:1005000001900D928150E1F70E944E0280E060E57B
:100510000E943D028E010F5F1F4F80E1E82EF12CFB
:10052000EC0EFD1E0E944E0281E0F80161918F01E8
:100530000E943D020E151F05A9F70E944E0280E0A1
:1005400060E80E943D0260960FB6F894DEBF0FBED1
:10055000CDBFCF91DF911F910F91FF90EF90089544
:1005600018BA82EE87BB8FEF81BB1092BE0010924B
:10057000BF001092C0001092C10013C08091BE0055
:100580009091BF00A091C000B091C1000196A11D43
:10059000B11D8093BE009093BF00A093C000B093A4
:1005A000C1008091BE009091BF00A091C000B091A9
:1005B000C100805C944DA140B04000F30E94540201
:1005C0000E946D0208950F931F93082F162F8150DC
:1005D0008230A0F4662391F0613180F40E944E02D3
:1005E0001150802F90E0019626E0880F991F2A95E0
:1005F000E1F7180F80E0612F0E943D021F910F91DB
:1006000008951F93182F0E944E0281E0612F0E94CF
:100610003D020E944E0285E18A95F1F780E00E943A
:1006200029028F77803111F482E007C080E00E94B8
:1006300029028F77803521F481E061E00E94E30296
:100640001F910895CF93DF93EC0102C00E94010334
:1006500089918823D9F7DF91CF9108950E944E02A6
:1006600080E061E00E943D020895DF93CF93CDB713
:10067000DEB761970FB6F894DEBF0FBECDBF80E145
:100680000EC000000000000000000000000029B3C0
:1006900020952F7051F48AB3880F8ABB8AB38ABB26
:1006A0008AB3882371F78FE72FC08AB3803161F056
:1006B000803211F491E009C0803411F492E005C059
:1006C000803811F493E001C090E020FD0CC021FFC0
:1006D00002C021E009C022FF02C022E005C023FFC2
:1006E00002C023E001C020E0DE011196EDE9F0E058
:1006F00081E101900D928150E1F7990F990F920FCE
:10070000FE01E90FF11D818161960FB6F894DEBFFD
:100710000FBECDBFCF91DF910895629FD001739F2F
:10072000F001829FE00DF11D649FE00DF11D929F8D
:10073000F00D839FF00D749FF00D659FF00D9927CC
:10074000729FB00DE11DF91F639FB00DE11DF91FF0
:10075000BD01CF0111240895991B79E004C0991FB0
:10076000961708F0961B881F7A95C9F7809508950B
:1007700097FB092E07260AD077FD04D00CD006D0AF
:1007800000201AF4709561957F4F0895F6F79095C3
:1007900081959F4F0895AA1BBB1B51E107C0AA1F5B
:1007A000BB1FA617B70710F0A61BB70B881F991F12
:1007B0005A95A9F780959095BC01CD010895FC014B
:1007C00088279927E89421912032E9F3293010F005
:1007D0002E30C8F32B3241F02D3239F4689404C026
:1007E0000E941E04820F911D219120532A30C0F3D4
:1007F0001EF4909581959F4F0895FB019F01E89409
:100800004230C4F04532B4F44A3029F497FB1EF468
:10081000909581959F4F642F77270E94CB03805D31
:100820008A330CF0895D8193CB010097A1F716F410
:100830005DE251931082C9010C9426047AE0979FDF
:10084000902D879F802D910D11240895DC01FC01CE
:10085000672F71917723E1F7329704C07C916D93F4
:1008600070836291AE17BF07C8F30895F894FFCF65
:100870004552524F52004C3D0025200020202020A0
:1008800020202020202020202020202000427573BE
:10089000792E2E2E00202020202020205059544830
:1008A000002020202020204E50595448003132335F
:1008B0004134353642373839432A30234400000A60
:0E08C000000400110A04000000000000000007
:00000001FF
