:100000000C942A000C9447000C9447000C94D901DE
:100010000C9447000C9447000C9447000C94470044
:100020000C9447000C9447000C9447000C94470034
:100030000C9447000C9447000C9447000C94470024
:100040000C9447000C9447000C9447000C94470014
:100050000C94470011241FBECFE5D4E0DEBFCDBF16
:1000600010E0A0E6B0E0E8E5F9E002C005900D92EE
:10007000A83CB107D9F710E0A8ECB0E001C01D9290
:10008000A13DB107E1F70E9430030C94AA040C943F
:1000900000009B01AC011092CC001092CD00109298
:1000A000CE001092CF0013C08091CC009091CD0073
:1000B000A091CE00B091CF000196A11DB11D8093FB
:1000C000CC009093CD00A093CE00B093CF00809150
:1000D000CC009091CD00A091CE00B091CF008217BE
:1000E0009307A407B50700F3089511BA882311F404
:1000F000C59801C0C59AC69A0000C79A00000000C2
:1001000000000000000080B3C79800009FEF91BB83
:1001100008959FEF91BB882311F4C59801C0C59A3B
:10012000C69862BB0000C79A000000000000C79894
:100130000000089580E00E94750087FDFBCF0895C0
:100140000E949A0080E06FE30E9489000E949A005A
:1001500080E066E00E9489000E949A0080E06CE0E6
:100160000E9489000E949A0080E061E00E9489005C
:100170000895EF92FF920F931F93DF93CF93CDB724
:10018000DEB760970FB6F894DEBF0FBECDBFDE01BD
:100190001196E1E7F0E080E101900D928150E1F7E6
:1001A0000E949A0080E060E50E9489008E010F5F46
:1001B0001F4F80E1E82EF12CEC0EFD1E0E949A00EC
:1001C00081E0F80161918F010E9489000E151F05E1
:1001D000A9F70E949A0080E060E80E94890060967A
:1001E0000FB6F894DEBF0FBECDBFCF91DF911F9148
:1001F0000F91FF90EF90089518BA82EE87BB8FEFB2
:1002000081BB1092CC001092CD001092CE001092C3
:10021000CF0013C08091CC009091CD00A091CE0072
:10022000B091CF000196A11DB11D8093CC00909399
:10023000CD00A093CE00B093CF008091CC009091E0
:10024000CD00A091CE00B091CF00805C944DA14034
:10025000B04000F30E94A0000E94B90008950F93DF
:100260001F93082F162F81508230A0F4662391F03F
:10027000613180F40E949A001150802F90E0019625
:1002800026E0880F991F2A95E1F7180F80E0612F6B
:100290000E9489001F910F9108951F93182F0E94AB
:1002A0009A0081E0612F0E9489000E949A0085E1F6
:1002B0008A95F1F780E00E9475008F77803111F404
:1002C00082E007C080E00E9475008F77803521F4BE
:1002D00081E061E00E942F011F910895CF93DF9389
:1002E000EC0102C00E944D0189918823D9F7DF916A
:1002F000CF9108950E949A0080E061E00E948900F9
:100300000895DF93CF93CDB7DEB761970FB6F8941A
:10031000DEBF0FBECDBF80E10EC0000000000000B8
:1003200000000000000029B320952F7051F48AB31B
:10033000880F8ABB8AB38ABB8AB3882371F78FE799
:100340002FC08AB3803161F0803211F491E009C08E
:10035000803411F492E005C0803811F493E001C0BC
:1003600090E020FD0CC021FF02C021E009C022FF67
:1003700002C022E005C023FF02C023E001C020E04C
:10038000DE011196E0E6F0E081E101900D928150EE
:10039000E1F7990F990F920FFE01E90FF11D81818D
:1003A00061960FB6F894DEBF0FBECDBFCF91DF913F
:1003B00008951F920F920FB60F921124FF920F9380
:1003C0001F932F933F934F935F936F937F938F93DD
:1003D0009F93AF93BF93EF93FF93DF93CF9300D09F
:1003E00000D0CDB7DEB70E949A0085E18A95F1F77B
:1003F00080E00E947500F82E82E061E00E942F01EB
:100400008091C6008A3028F06AE00E942004805D56
:1004100001C080E20E944D018091C6006AE00E9406
:100420002004892F805D0E944D018AE30E944D01C6
:100430008091C7006AE00E942004805D0E944D0107
:100440008091C7006AE00E942004892F805D0E948D
:100450004D018AE30E944D018091CA006AE00E942A
:100460002004805D0E944D018091CA006AE00E94D4
:100470002004892F805D0E944D018091C900843045
:1004800091F41092C9001091C5000E948101982F2B
:100490008093C5001F3739F48F3729F081E08093AE
:1004A000C8009093D0008091C800882309F46AC0E6
:1004B0008091D000833429F08091D000843409F0F9
:1004C00061C01092C8008091D000833491F4809173
:1004D000C3009091C40005969093C4008093C3001C
:1004E0008536910534F084E690E09093C4008093C3
:1004F000C3008091D000843479F48091C30090913E
:10050000C40005979093C4008093C30097FF04C074
:100510001092C4001092C3002091C3003091C40017
:100520008FEF90E0AC01249FC001259F900D349F78
:10053000900D112464E670E00E942C046CBF82E0F0
:100540006CE00E942F0181E890E00E946E0182E041
:100550006BE00E942F0187E890E00E946E0180917D
:10056000C3009091C4008E010F5F1F4FB8014AE095
:1005700050E00E947104C8010E946E018AE890E078
:100580000E946E018091CB008F5F8093CB008D37EE
:1005900009F51092CB008091CA008F5F8093CA004A
:1005A0008C3339F41092CA008091C7008F5F80931A
:1005B000C7008091C7008C3339F41092C700809136
:1005C000C6008F5F8093C6008091C600883111F409
:1005D0001092C6008091CB00833471F482E063E016
:1005E0000E942F0180E20E944D0182E066E00E949D
:1005F0002F0180E20E944D0108B607FE07C00E944D
:100600007A018CE890E00E946E01FFCF50E8F52A55
:1006100080E06F2D0E9489000E949A0085E18A95F2
:10062000F1F78091C9008F5F8093C9000F900F9000
:100630000F900F90CF91DF91FF91EF91BF91AF910C
:100640009F918F917F916F915F914F913F912F91EA
:100650001F910F91FF900F900FBE0F901F90189554
:100660002F923F924F925F926F927F928F929F92C2
:10067000AF92BF92CF92DF92EF92FF920F931F93B0
:10068000DF93CF9300D000D0CDB7DEB70E94FC003F
:100690008EE085BD89EF83BD8CE683BF80E88CBF8B
:1006A000BB9A89B7806889BF8FB780688FBF91E098
:1006B0008091C8008823E1F38091D0008033C0F39B
:1006C0008091D0008A33A0F71092C8009230C9F010
:1006D000933021F1913061F781E061E00E942F01B8
:1006E00082E990E00E946E018091D000898381E0D0
:1006F00061E00E942F018091D0000E944D0192E0A4
:10070000D7CF8091D0008A8381E062E00E942F01E0
:100710008091D0000E944D0193E0CACF8091D0001B
:100720008B831C8281E063E00E942F018091D000C6
:100730000E944D0181E065E00E942F0183EA90E074
:100740000E946E01CE0101960E9453049C01442731
:1007500037FD4095542FCA01B9010E9401041B01C5
:100760002C0191E0A92EB12CC12CD12C2DC0C80197
:10077000B701A80197010E940104660D771D881D2D
:10078000991D621573058405950561F10894E11CB6
:10079000F11C011D111D88EEE81683E0F80680E0CB
:1007A000080780E0180719F70894A11CB11CC11CA8
:1007B000D11C88EEA81683E0B80680E0C80680E069
:1007C000D80611F410E00FC0C601B501A6019501CD
:1007D0000E9401043B014C0181E0E82EF12C012D27
:1007E000112DC5CF11E081E065E00E942F0111239A
:1007F00019F08BEA90E002C087EB90E00E946E0156
:1008000056CF629FD001739FF001829FE00DF11DD2
:10081000649FE00DF11D929FF00D839FF00D749F7A
:10082000F00D659FF00D9927729FB00DE11DF91F26
:10083000639FB00DE11DF91FBD01CF011124089583
:10084000991B79E004C0991F961708F0961B881F22
:100850007A95C9F78095089597FB092E07260AD047
:1008600077FD04D00CD006D000201AF47095619565
:100870007F4F0895F6F7909581959F4F0895AA1B95
:10088000BB1B51E107C0AA1FBB1FA617B70710F07B
:10089000A61BB70B881F991F5A95A9F780959095AD
:1008A000BC01CD010895FC0188279927E894219186
:1008B0002032E9F3293010F02E30C8F32B3241F00A
:1008C0002D3239F4689404C00E949204820F911D65
:1008D000219120532A30C0F31EF4909581959F4FAB
:1008E0000895FB019F01E8944230C4F04532B4F40E
:1008F0004A3029F497FB1EF4909581959F4F642F01
:1009000077270E943F04805D8A330CF0895D8193D4
:10091000CB010097A1F716F45DE251931082C90153
:100920000C949A047AE0979F902D879F802D910DCB
:1009300011240895DC01FC01672F71917723E1F701
:10094000329704C07C916D9370836291AE17BF079C
:08095000C8F30895F894FFCFED
:100958003132334134353642373839432A3023442B
:1009680000000A000400110A040000000000000052
:10097800002020202020004C3D0025004552524FE9
:10098800520020202020202020202020202020204D
:10099800202000427573792E2E2E00202020202042
:1009A800202050595448002020202020204E505903
:0809B80054480032007F0918C9
:00000001FF
